:100000000C94110F0C942E0F0C942E0F0C942E0F99
:100010000C942E0F0C942E0F0C942E0F0C942E0F6C
:100020000C942E0F0C942E0F0C942E0F0C942E0F5C
:100030000C942E0F0C942E0F0C942E0F0C942E0F4C
:100040000C942E0F0C9499230C942E0F0C942E0FBD
:100050000C942E0F0C942E0F0C942E0F0C942E0F2C
:100060000C942E0F0C942E0F0C942E0F0C942E0F1C
:100070000C942E0F0C942E0F0C942E0F0C942E0F0C
:100080000C942E0F0C942E0F0C942E0F0C942E0FFC
:100090000C942E0F0C942E0F0C942E0F0C942E0FEC
:1000A0000C942E0F0C942E0F0C942E0F0C942E0FDC
:1000B0000C942E0F0C942E0F0C942E0F0C942E0FCC
:1000C0000C942E0F0C942E0F0C942E0F0C94DE41DA
:1000D0000C942E0F0C943A410C942E0F0C942E0F6E
:1000E0000C942E0F740F670F740F670F7A0F6A0F3F
:1000F0007A0F6F0F740F670F7A0F7A0F770F740FE5
:10010000670F770F670F740F4C1141114C1141119C
:100110005A1144115A1148114C1141115A115A11D6
:100120004F114C1141114F1141114C118B15931569
:10013000A215AA15CE15CE15B115B915C015C8153D
:10014000A516B616F91D3E1EA4189216361EC21D1F
:10015000CF163E1E3E1E3E1E3E1E081B3E1E221E8B
:10016000931CCC16591C3E1E321E8B1CC916FF1B3D
:10017000971C971C9D179D179D178E170F179D177E
:1001800004179D179D17971C9D17DE16FC193A1A28
:100190003A1A3A1A3A1A3A1A3A1A971C971C3A1A01
:1001A0003A1A3A1A291A7A193A1A58193A1A3A1A64
:1001B0003A1A3A1AB3189D20B020B020B020AD20D2
:1001C00092209D20B020B020B020B020B020B020E0
:1001D000B020B020B0209520B020B020B020AD20BD
:1001E00092209520F420052105210521FD200121E3
:1001F000F4200521052105210521052105210521E1
:1002000005210521F420052105210521FD200121DD
:10021000F420FD23002400240424082408240C24B2
:100220000C24EE24F624EE24F624162500251625AB
:10023000082516251625122516251625EE24F62442
:100240001225F624EE24C833CA33853343345E3492
:100250004B345E344B345E345E345E345E345E3434
:10026000DE33E033E933D333D53338343A34F4333F
:1002700043345E344B345E344B345E345E345E342F
:100280005E345E345E345E345E3453345534010083
:1002900001FF040000000001000000004800000011
:1002A00000000000000000EA608D0A0B850EFF0CC4
:1002B000000000300000000003000000300000C01B
:1002C0000000000000000001000000020000000427
:1002D00000000008000000100000002000000000E6
:1002E00010000000200000004000000080000040DE
:1002F000000000800000000001000000020000007B
:1003000004000000080000000000000000000000E1
:1003100000000000000000000000000000000000DD
:1003200000000000000000000000000000000000CD
:1003300000000000000000000000000000000000BD
:1003400000000000000000000000000005A81008E8
:100350004D05A80E084D05A80C084D05A80A084D26
:1003600005A808084D05A806084D05A804084D0570
:10037000A802084D05A911084D05A90F084D05A9AA
:100380000D084D05A90B084D05A909084D05A9073C
:10039000084D05A905084D05A903084D05A9010843
:1003A0004D05AA10084D05AA0E084D05AA0C084DCA
:1003B00005AA0A084D05AA08084D05AA06084D0514
:1003C000AA04084D05AA02084D05AB11084D05AB5E
:1003D0000F084D05AB0D084D05AB0B084D05AB09DE
:1003E000084D05AB07084D05AB05084D05AB0308E7
:1003F0004D05AB01084D05AC10084D05AC0E084D80
:1004000005AC0C084D05AC0A084D05AC08084D05B7
:10041000AC06084D05AC04084D05AC02084D05AD11
:1004200011084D05AD0F084D05AD0D084D05AD0B7F
:10043000084D05AD09084D05AD07084D05AD05088A
:100440004D05AD03084D05AD01084D05AE10084D35
:1004500005AE0E084D05AE0C084D05AE0A084D055B
:10046000AE08084D05AE06084D05AE04084D05AEB4
:1004700002084D05AF11084D05AF0F084D05AF0D32
:10048000084D05AF0B084D05AF09084D05AF07082E
:100490004D05AF05084D05AF03084D05AF01084DEB
:1004A00005B010084D05B00E084D05B00C084D05FF
:1004B000B00A084D05B008084D05B006084D05B056
:1004C00004084D05B002084D05B111084D05B10FE6
:1004D000084D05B10D084D05B10B084D05B10908D2
:1004E0004D05B107084D05B105084D05B103084D8F
:1004F00005B101084D05B210084D05B20E084D05B5
:10050000B20C084D05B20A084D05B208084D05B2F7
:1005100006084D05B204084D05B202084D05B31199
:10052000084D05B30F084D05B30D084D05B30B0875
:100530004D05B309084D05B307084D05B305084D32
:1005400005B303084D05B301084D05B410084D056A
:10055000B40E084D05B40C084D05B40A084D05B499
:1005600008084D05B406084D05B404084D05B4024D
:10057000084D05B511084D05B50F084D05B50D0819
:100580004D05B50B084D05B509084D05B507084DD6
:1005900005B505084D05B503084D05B501084D0520
:1005A000B610084D05B60E084D05B60C084D05B63B
:1005B0000A084D05B608084D05B606084D05B604EF
:1005C000084D05B602084D05B711084D05B70F08CF
:1005D0004D05B70D084D05B70B084D05B709084D7A
:1005E00005B707084D05B705084D05B703084D05C4
:1005F000B701084D05B810084D05B80E084D05B8EF
:100600000C084D05B80A084D05B808084D05B80690
:10061000084D05B804084D05B802084D05B9110884
:100620004D05B90F084D05B90D084D05B90B084D1D
:1006300005B909084D05B907084D05B905084D0567
:10064000B903084D05B901084D05BA10084D05BAA2
:100650000E084D05BA0C084D05BA0A084D05BA0832
:10066000084D05BA06084D05BA04084D05BA02083A
:100670004D05BB11084D05BB0F084D05BB0D084DC1
:1006800005BB0B084D05BB09084D05BB07084D050B
:10069000BB05084D05BB03084D05BB01084D05BC56
:1006A00010084D05BC0E084D05BC0C084D05BC0AD4
:1006B000084D05BC08084D05BC06084D05BC0408DE
:1006C0004D05BC02084D05BD11084D05BD0F084D77
:1006D00005BD0D084D05BD0B084D05BD09084D05AF
:1006E000BD07084D05BD05084D05BD03084D05BDF9
:1006F00001084D05BE10084D05BE0E084D05BE0C87
:10070000084D05BE0A084D05BE08084D05BE060881
:100710004D05BE04084D05BE02084D05BF11084D2C
:1007200005BF0F084D05BF0D084D05BF0B084D0552
:10073000BF09084D05BF07084D05280A084D0528C3
:1007400008084D052806084D052804084D0528020F
:10075000084D052911084D05290F084D05290D08DB
:100760004D05290B084D052909084D052907084D98
:10077000052905084D052903084D052901084D05E2
:100780002A10084D052A0E084D052A0C084D052A89
:100790000A084D052A08084D052A06084D052A04B1
:1007A000084D052A02084D052B11084D052B0F0891
:1007B0004D052B0D084D052B0B084D052B09084D3C
:1007C000052B07084D052B05084D052B03084D0586
:1007D0002B01084D052C10084D052C0E084D052C3D
:1007E0000C084D052C0A084D052C08084D052C0653
:1007F000084D052C04084D052C02084D052D110847
:100800004D052D0F084D052D0D084D052D0B084DDF
:10081000052D09084D052D07084D052D05084D0529
:100820002D03084D052D01084D052E10084D052EF0
:100830000E084D052E0C084D052E0A084D052E08F4
:10084000084D052E06084D052E04084D052E0208FC
:100850004D052F11084D052F0F084D052F0D084D83
:10086000052F0B084D052F09084D052F07084D05CD
:100870002F05084D052F03084D052F01084D0530A4
:1008800010084D05300E084D05300C084D05300A96
:10089000084D053008084D053006084D05300408A0
:1008A0004D053002084D053111084D05310F084D39
:1008B00005310D084D05310B084D053109084D0571
:1008C0003107084D053105084D053103084D053147
:1008D00001084D053210084D05320E084D05320C49
:1008E000084D05320A084D053208084D0532060844
:1008F0004D053204084D053202084D053311084DEF
:1009000005330F084D05330D084D05330B084D0514
:100910003309084D053307084D053305084D0533E8
:1009200003084D053301084D053410084D05340EFC
:10093000084D05340C084D05340A084D05340808E7
:100940004D053406084D053404084D053402084DA4
:10095000053511084D05350F084D05350D084D05B8
:10096000350B084D053509084D053507084D05358A
:1009700005084D053503084D053501084D053610B0
:10098000084D05360E084D05360C084D05360A088B
:100990004D053608084D053606084D053604084D48
:1009A000053602084D053711084D05370F084D056E
:1009B000370D084D05370B084D053709084D05372C
:1009C00007084D053705084D053703084D05370164
:1009D000084D053810084D05380E084D05380C082F
:1009E0004D05380A084D053808084D053806084DEC
:1009F000053804084D053802084D053911084D0524
:100A0000390F084D05390D084D05390B084D0539CD
:100A100009084D053907084D053905084D05390305
:100A2000084D053901084D053A10084D053A0E08E4
:100A30004D053A0C084D053A0A084D053A08084D8F
:100A4000053A06084D053A04084D053A02084D05D9
:100A50003B11084D053B0F084D053B0D084D053B6F
:100A60000B084D053B09084D053B07084D053B05A7
:100A7000084D053B03084D053B01084D053C10089A
:100A80004D053C0E084D053C0C084D053C0A084D33
:100A9000053C08084D053C06084D053C04084D057D
:100AA0003C02084D053D11084D053D0F084D053D23
:100AB0000D084D053D0B084D053D09084D053D0749
:100AC000084D053D05084D053D03084D053D010850
:100AD0004D053E10084D053E0E084D053E0C084DD7
:100AE000053E0A084D053E08084D053E06084D0521
:100AF0003E04084D053E02084D053F11084D053FD7
:100B00000F084D053F0D084D053F0B084D053F09EA
:100B1000084D053F07084D053F05084D053F0308F3
:100B20004D053F01084D07E51106A407E51006A491
:100B300007E50F06A407E50E06A407E50D06A407C2
:100B4000E50C06A407E50B06A407E50A06A407E5DD
:100B50000906A407E50806A407E50706A407E506B5
:100B600006A407E50506A407E50406A407E50306B1
:100B7000A407E50206A407E50106A407E61106A4FA
:100B800007E61006A407E60F06A407E60E06A4076C
:100B9000E60D06A407E60C06A407E60B06A407E686
:100BA0000A06A407E60906A407E60806A407E6075E
:100BB00006A407E60606A407E60506A407E604065B
:100BC000A407E60306A407E60206A407E60106A4B6
:100BD00007E71106A407E71006A407E70F06A40716
:100BE000E70E06A407E70D06A407E70C06A4077E98
:100BF0000206A4077E0106A4077F1106A4077F1042
:100C000006A4077F0F06A4077F0E06A4077F0D0624
:100C1000A4077F0C06A4077F0B06A4077F0A06A47F
:100C2000077F0906A4077F0806A4077F0706A40715
:100C30007F0606A4077F0506A4077F0406A4077F96
:100C40000306A4077F0206A4077F0106A4078011FC
:100C500006A407801006A407800F06A407800E06CE
:100C6000A407800D06A407800C06A407800B06A429
:100C700007800A06A407800906A407800806A407BF
:100C8000800706A407800606A407800506A407803F
:100C90000406A407800306A407800206A4078001B7
:100CA00006A407811106A407811006A407810F0678
:100CB000A407810E06A405D52406A405D52806A4FC
:100CC00005D52C06A405D53006A405D53406A40503
:100CD000D53806A405D53C06A405D60006A405D63D
:100CE0000406A405D60806A406022406A4060228C3
:100CF00006A406022C06A406023006A40602340648
:100D0000A406023806A406023C06A406030006A4B4
:100D100006030406A406030806A405D52306A405B5
:100D2000D52506A405D52706A405D52906A405D5ED
:100D30002B06A405D52D06A405D52F06A405D5316F
:100D400006A405D53306A405D53506A405D5370672
:100D5000A405D53906A405D53B06A405D53D06A4B2
:100D600005D53F06A405D60106A405D60306A405AD
:100D7000D60506A405D60706A406022306A4060285
:100D80002506A406022706A406022906A406022BAD
:100D900006A406022D06A406022F06A406023106AA
:100DA000A406023306A406023506A406023706A4EA
:100DB00006023906A406023B06A406023D06A40666
:100DC000023F06A406030106A406030306A40603C5
:100DD0000506A406030706A405D43C06A405D50011
:100DE00006A405D50406A405D50806A405D50C0659
:100DF000A405D51006A405D51406A405D51806A487
:100E000005D51C06A405D52006A406013C06A406AB
:100E1000020006A406020406A406020806A40602AE
:100E20000C06A406021006A406021406A406021864
:100E300006A406021C06A406022006A405D43B064E
:100E4000A405D43D06A405D43F06A405D50106A4F7
:100E500005D50306A405D50506A405D50706A405F2
:100E6000D50906A405D50B06A405D50D06A405D500
:100E70000F06A405D51106A405D51306A405D5159E
:100E800006A405D51706A405D51906A405D51B0685
:100E9000A405D51D06A405D51F06A406013B06A47E
:100EA00006013D06A406013F06A406020106A406AB
:100EB000020306A406020506A406020706A406020B
:100EC0000906A406020B06A406020D06A406020FDC
:100ED00006A406021106A406021306A406021506BD
:100EE000A406021706A406021906A406021B06A4FD
:100EF00006021D06A406021F06A401FD1C06A4018D
:100F0000FD1D06A401FD1E06A401FD1F06A401FD92
:100F10002006A401FD2106A401FD2206A401FD2353
:100F200006A401FD2406A401FD2506A401FD260654
:100F3000A401FD2706A401FD2806A401FD2906A49D
:100F400001FD2A06A401FD2B06A401FD2C06A40127
:100F5000FD2D06A401FD2E06A401FD2F06A401FD12
:100F60003006A401FD3106A401FD3206A401FD33C3
:100F700006A401FD3406A401FD3506A401FD3606D4
:100F8000A401FD3706A401FD3806A401FD3906A41D
:100F900001FD3A06A401FD3B06A401FD3C06A401A7
:100FA000FD3D06A401FD3E06A401FD3F06A401FE91
:100FB0000006A401FE0106A401FE0206A401FE0330
:100FC00006A4020203030303040404050505060640
:100FD000060707070808080909090A0A0A0B0B0B84
:100FE0000C0C0C0D0D0D0E0E0E0F0F0F101010111E
:100FF00011111212121313131414141515151616B9
:1010000016172DF59A2DF69A2DF79A2DF89A2DF997
:101010009A2DFA9A2DFB9A2DFC9A2DFD9A2DFE9A67
:101020002DFF9A2E009A2E019A2E029A2E039A2EA6
:10103000049A2E059A2E069A2E079A2E089A2E09A1
:101040009A2E0A9A2E0B9A2E0C9A2E0D9A2E0E9AE2
:101050002E0F9A2E109A2E119A2E129A2E139A2E25
:10106000149A2E159A2E169A2E179A2E189A2E1911
:101070009A2E1A9A2E1B9A2E1C9A2E1D9A2E1E9A62
:101080002E1F9A2E209A2E219A2E229A2E239A2EA5
:10109000249A2E259A2E269A2E279A2E289A2E2981
:1010A0009A2E2A9A2E2B9A2E2C9A2E2D9A2E2E9AE2
:1010B0002E2F9A2E309A2E319A2E329A2E339A2E25
:1010C000349A2E359A2E369A2E379A2E389A2E39F1
:1010D0009A2E3A9A2E3B9A2E3C9A2E3D9A2E3E9A62
:1010E0002E3F9A2E409A2E419A2E429A2E439A2EA5
:1010F000449A2E459A2E469A2E479A2E489A2E4961
:101100009A2E4A9A2E4B9A2E4C9A2E4D9A2E4E9AE1
:101110002E4F9A2E509A2E519A2E529A2E539A2E24
:10112000549A2E559A2E569A2E579A2E589A2E59D0
:101130009A2E5A9A2E5B9A2E5C9A2E5D9A2E5E9A61
:101140002E5F9A2E609A2E619A2E629A2E639A2EA4
:10115000649A2E659A2E669A2E679A2E689A2E6940
:101160009A2E6A9A2E6B9A2E6C9A2E6D9A2E6E9AE1
:101170002E6F9A2E709A2E719A2E729A2E739A2E24
:10118000749A2E759A2E769A2E779A2E789A2E79B0
:101190009A2E7A9A2E7B9A2E7C9A2E7D9A2E7E9A61
:1011A0002E7F9A2E809A2E819A2E829A2E839A2EA4
:1011B000849A2E859A2E869A2E879A2E889A2E8920
:1011C0009A2E8A9A2E8B9A2E8C9A2E8D9A2E8E9AE1
:1011D0002E8F9A2E909A2E919A2E929A2E939A2E24
:1011E000949A2E959A2E969A2E979A2E989A2E9990
:1011F0009A2E9A9A2E9B9A2E9C9A2E9D9A2E9E9A61
:101200002E9F9A2EA09A2EA19A2EA29A2EA39A2EA3
:10121000A49A2EA59A2EA69A2EA79A2EA89A2EA9FF
:101220009A2EAA9A2EAB9A2EAC9A2EAD9A2EAE9AE0
:101230002EAF9A2EB09A2EB19A2EB29A2EB39A2E23
:10124000B49A2EB59A2EB69A2EB79A2EB89A2EB96F
:101250009A2EBA9A2EBB9A2EBC9A2EBD9A300C9A10
:10126000300D9A300E9A300F9A30109A30119A3011
:10127000129A30139A30149A30159A30169A301701
:101280009A30189A30199A301A9A301B9A301C9A50
:10129000301D9A301E9A301F9A30209A30219A3091
:1012A000229A30239A30249A30259A30269A302771
:1012B0009A30289A30299A302A9A302B9A302C9AD0
:1012C000302D9A302E9A302F9A30309A30319A3011
:1012D000329A30339A30349A30359A30369A3037E1
:1012E0009A30389A30399A303A9A303B9A303C9A50
:1012F000303D9A303E9A303F9A30409A30419A3091
:10130000429A30439A30449A30459A30469A304750
:101310009A30489A30499A304A9A304B9A304C9ACF
:10132000304D9A304E9A304F9A30509A30519A3010
:10133000529A30539A30549A30559A30569A3057C0
:101340009A30589A30599A305A9A305B9A305C9A4F
:10135000305D9A305E9A305F9A30609A30619A3090
:10136000629A30639A30649A30659A30669A306730
:101370009A30689A30699A306A9A306B9A306C9ACF
:10138000306D9A306E9A306F9A30709A30719A3010
:10139000729A30739A30749A30759A30769A3077A0
:1013A0009A30789A30799A307A9A307B9A307C9A4F
:1013B000307D9A307E9A307F9A30809A30819A3090
:1013C000829A30839A30849A30859A30869A308710
:1013D0009A30889A30899A308A9A308B9A308C9ACF
:1013E000308D9A308E9A308F9A30909A30919A3010
:1013F000929A30939A30949A30959A30969A309780
:101400009A30989A30999A309A9A309B9A309C9A4E
:10141000309D9A309E9A309F9A30A09A30A19A308F
:10142000A29A30A39A30A49A30A59A30A69A30A7EF
:101430009A30A89A30A99A30AA9A30AB9A30AC9ACE
:1014400030AD9A30AE9A30AF9A30B09A30B19A300F
:10145000B29A30B39A30B49A30B59A30B69A30B75F
:101460009A30B89A30B99A30BA9A30BB9A30BC9A4E
:1014700030BD9A30BE9A30BF9A30C09A30C19A308F
:10148000C29A30C39A30C49A30C59A30C69A30C7CF
:101490009A30C89A30C99A30CA9A30CB9A30CC9ACE
:1014A00030CD9A30CE9A30CF9A30D09A30D19A300F
:1014B000D29A30D39A30D49A030018084D03001AF8
:1014C000084D03001C084D03001E084D03010008D1
:1014D0004D030102084D030104084D030106084DA8
:1014E000030108084D03010A084D03010C084D03D0
:1014F000010E084D030110084D030112084D0301B0
:1015000014084D030116084D030118084D03011A74
:10151000084D03011C084D03011E084D030200087D
:101520004D030202084D030204084D030206084D54
:10153000030208084D03020A084D03020C084D037C
:10154000020E084D030210084D030212084D03025B
:1015500014084D030216084D030218084D03021A21
:10156000084D03021C084D03021E084D030300082A
:101570004D030302084D030304084D030306084D01
:10158000030308084D03030A084D03030C084D0329
:10159000030E084D030310084D030312084D030307
:1015A00014084D030316084D030318084D03031ACE
:1015B000084D03031C084D03031E084D03040008D7
:1015C0004D030402084D030404084D030406084DAE
:1015D000030408084D03040A084D03040C084D03D6
:1015E000040E084D030410084D030412084D0304B3
:1015F00014084D030416084D030418084D03041A7B
:10160000084D03041C084D03041E084D0305000883
:101610004D030502084D030504084D030506084D5A
:10162000030508084D03050A084D03050C084D0382
:10163000050E084D030510084D030512084D03055E
:1016400014084D030516084D030518084D03051A27
:10165000084D03051C084D03051E084D0306000830
:101660004D030602084D030604084D030606084D07
:10167000030608084D03060A084D03060C084D032F
:10168000060E084D030610084D030612084D03060A
:1016900014084D030616084D030618084D03061AD4
:1016A000084D03061C084D03061E084D03070008DD
:1016B0004D030702084D030704084D030706084DB4
:1016C000030708084D03070A084D03070C084D03DC
:1016D000070E084D030710084D030712084D0307B6
:1016E00014084D030716084D030718084D03071A81
:1016F000084D03071C084D03071E084D030800088A
:101700004D030802084D030804084D030806084D60
:10171000030808084D03080A084D03080C084D0388
:10172000080E084D030810084D030812084D030861
:1017300014084D030816084D030818084D03081A2D
:10174000084D03081C084D03081E084D0309000836
:101750004D030902084D030904084D030906084D0D
:10176000030908084D03090A084D03090C084D0335
:10177000090E084D030910084D030912084D03090D
:1017800014084D030916084D030918084D03091ADA
:10179000084D03091C084D03091E084D030A0008E3
:1017A0004D030A02084D030A04084D030A06084DBA
:1017B000030A08084D030A0A084D030A0C084D03E2
:1017C0000A0E084D030A10084D030A12084D030AB9
:1017D00014084D030A16084D030A18084D030A1A87
:1017E000084D030A1C084D030A1E084D030B000890
:1017F0004D030B02084D030B04084D030B06084D67
:10180000030B08084D030B0A084D030B0C084D038E
:101810000B0E084D030B10084D030B12084D030B64
:1018200014084D030B16084D030B18084D030B1A33
:10183000084D030B1C084D030B1E084D030C00083C
:101840004D030C02084D030C04084D030C06084D13
:10185000030C08084D030C0A084D030C0C084D033B
:101860000C0E084D030C10084D030C12084D030C10
:1018700014084D030C16084D030C18084D030C1AE0
:10188000084D030C1C084D030C1E084D030D0008E9
:101890004D030D02084D030D04084D030D06084DC0
:1018A000030D08084D02BC1E084D02BD00084D0284
:1018B000BD02084D02BD04084D02BD06084D02BD23
:1018C00008084D02BD0A084D02BD0C084D02BD0EB0
:1018D000084D02BD10084D02BD12084D02BD14088E
:1018E0004D02BD16084D02BD18084D02BD1A084D27
:1018F00002BD1C084D02BD1E084D02BE00084D026F
:10190000BE02084D02BE04084D02BE06084D02BECE
:1019100008084D02BE0A084D02BE0C084D02BE0E5C
:10192000084D02BE10084D02BE12084D02BE14083A
:101930004D02BE16084D02BE18084D02BE1A084DD3
:1019400002BE1C084D02BE1E084D02BF00084D021B
:10195000BF02084D02BF04084D02BF06084D02BF7A
:1019600008084D02BF0A084D02BF0C084D02BF0E09
:10197000084D02BF10084D02BF12084D02BF1408E7
:101980004D02BF16084D02BF18084D02BF1A084D80
:1019900002BF1C084D02BF1E084D02C000084D02C8
:1019A000C002084D02C004084D02C006084D02C026
:1019B00008084D02C00A084D02C00C084D02C00EB6
:1019C000084D02C010084D02C012084D02C0140894
:1019D0004D02C016084D02C018084D02C01A084D2D
:1019E00002C01C084D02C01E084D02C100084D0275
:1019F000C102084D02C104084D02C106084D02C1D2
:101A000008084D02C10A084D02C10C084D02C10E62
:101A1000084D02C110084D02C112084D02C1140840
:101A20004D02C116084D02C118084D02C11A084DD9
:101A300002C11C084D02C11E084D02C200084D0221
:101A4000C202084D02C204084D02C206084D02C27D
:101A500008084D02C20A084D02C20C084D02C20E0F
:101A6000084D02C210084D02C212084D02C21408ED
:101A70004D02C216084D02C218084D02C21A084D86
:101A800002C21C084D02C21E084D02C300084D02CE
:101A9000C302084D02C304084D02C306084D02C329
:101AA00008084D02C30A084D02C30C084D02C30EBC
:101AB000084D02C310084D02C312084D02C314089A
:101AC0004D02C316084D02C318084D02C31A084D33
:101AD00002C31C084D02C31E084D02C400084D027B
:101AE000C402084D02C404084D02C406084D02C4D5
:101AF00008084D02C40A084D02C40C084D02C40E69
:101B0000084D02C410084D02C412084D02C4140846
:101B10004D02C416084D02C418084D02C41A084DDF
:101B200002C41C084D02C41E084D02C500084D0227
:101B3000C502084D02C504084D02C506084D02C580
:101B400008084D02C50A084D02C50C084D02C50E15
:101B5000084D02C510084D02C512084D02C51408F3
:101B60004D02C516084D02C518084D02C51A084D8C
:101B700002C51C084D02C51E084D02C600084D02D4
:101B8000C602084D02C604084D02C606084D02C62C
:101B900008084D02C60A084D02C60C084D02C60EC2
:101BA000084D02C610084D02C612084D02C61408A0
:101BB0004D02C616084D02C618084D02C61A084D39
:101BC00002C61C084D02C61E084D02C700084D0281
:101BD000C702084D02C704084D02C706084D02C7D8
:101BE00008084D02C70A084D02C70C084D02C70E6F
:101BF000084D02C710084D02C712084D02C714084D
:101C00004D02C716084D02C718084D02C71A084DE5
:101C100002C71C084D02C71E084D02C800084D022D
:101C2000C802084D02C804084D02C806084D02C883
:101C300008084D02C80A084D02C80C084D02C80E1B
:101C4000084D02C810084D02C812084D02C81408F9
:101C50004D02C816084D02C818084D02C81A084D92
:101C600002C81C084D02C81E084D02C900084D02DA
:101C7000C902084D02C904084D02C906084D02C92F
:101C800008084D02C90A084D02C90C084D02C90EC8
:101C9000084D04310406A404310506A404310606E7
:101CA000A404310706A404310806A404310906A4DB
:101CB00004310A06A404310B06A404310C06A40462
:101CC000310D06A404310E06A404310F06A404311C
:101CD0001006A404311106A404311206A404311321
:101CE00006A404311406A404311506A40431160612
:101CF000A404311706A404311806A404311906A45B
:101D000004311A06A404311B06A404311C06A404E1
:101D1000311D06A404311E06A404311F06A404329A
:101D20000006A404320106A404320206A40432030D
:101D300006A404320406A404320506A404320606EE
:101D4000A404320706A404320806A404320906A437
:101D500004320A06A404320B06A403FA1C06A403E8
:101D6000FA1D06A403FA1E06A403FA1F06A403FB29
:101D70000006A403FB0106A403FB0206A403FB0365
:101D800006A403FB0406A403FB0506A403FB060646
:101D9000A403FB0706A403FB0806A403FB0906A48F
:101DA00003FB0A06A403FB0B06A403FB0C06A40317
:101DB000FB0D06A403FB0E06A403FB0F06A403FB06
:101DC0001006A403FB1106A403FB1206A403FB13D5
:101DD00006A403FB1406A403FB1506A403FB1606C6
:101DE000A403FB1706A403FB1806A403FB1906A40F
:101DF00003FB1A06A403FB1B06A403FB1C06A40397
:101E0000FB1D06A403FB1E06A403FB1F06A403FC84
:101E10000006A403FC0106A403FC0206A403FC03C1
:101E200006A411241FBECFEFD1E2DEBFCDBF18E064
:101E3000A0E0B2E0EEE0F6E802C005900D92AC350D
:101E4000B107D9F72FE0ACE5B8E001C01D92AF357E
:101E5000B207E1F70E946D240C9405430C94000036
:101E60000895089508950C94390F0C94390F0C942B
:101E7000390F0895F999FECF92BD81BD60BDF894E8
:101E8000FA9AF99A789408950F931F93CF93DF935A
:101E9000EC018E012196F801808190E00E94F142D0
:101EA000892BB9F7C801DF91CF911F910F91089548
:101EB000E09110028E2FEE0F990BAA0BBB0B823113
:101EC0009105C0F4FC01EE58FF4F0C94BF4280E036
:101ED0000C94882180E090E00E941020089580E01A
:101EE00090E00E94A31E089580E00C944B2180E0B6
:101EF0000C9433218FEF08959F92AF92BF92CF92AF
:101F0000DF92EF92FF920F931F93CF93DF938C0199
:101F1000EB012196FB01908180ED890F813110F05A
:101F200089EC890FC82ED12CE12CF12C9C2EAD2EE2
:101F3000B9908B2D90E00E94E542892B79F084E0E6
:101F4000CC0CDD1CEE1CFF1C8A95D1F780ED8B0DAF
:101F5000813110F089EC8B0DC82AE8CFF801C082DE
:101F6000D182E282F382892D9A2DDF91CF911F9148
:101F70000F91FF90EF90DF90CF90BF90AF909F9028
:101F80000895BF92CF92DF92EF92FF920F931F932B
:101F9000CF93DF936C018B010F5F1F4FFB0180819B
:101FA000C0EDC80FC13110F0C9ECC80FD0E0B02EA1
:101FB000E12EF801F1908F018F2D90E00E94E54213
:101FC000892B69F084E0CC0FDD1F8A95E1F780ED65
:101FD0008F0D813110F089EC8F0DC82BE8CFF60101
:101FE000D183C0838B2D9E2DDF91CF911F910F91B7
:101FF000FF90EF90DF90CF90BF900895EF92FF9207
:102000000F931F93CF93DF9360912E0E82E090E0A9
:102010000E943A0F6091240E83E090E00E943A0FF4
:102020006091290E84E090E00E943A0F6091250EA5
:1020300085E090E00E943A0F6091280E86E090E0E3
:102040000E943A0F6091190287E090E00E943A0FD7
:1020500060912C0E88E090E00E943A0FC09101023E
:10206000609102028AE090E00E943A0F6C2F8BE0B0
:1020700090E00E943A0F609100028CE090E00E9494
:102080003A0F609103028DE090E00E943A0F609158
:102090002A0E8EE090E00E943A0F00EC19E0C0E1B9
:1020A000D0E0F80161918F01CE010E943A0F219694
:1020B000C431D105B1F70CEB19E0C0E2D0E0F80172
:1020C00061918F01CE010E943A0F2196C432D10551
:1020D000B1F704EB19E0F80161918F01CE010E9484
:1020E0003A0F2196C832D105B1F705E112E0C0E3FD
:1020F000D0E0F80161918F01CE010E943A0F219644
:10210000C433D105B1F706ED19E0C0E4D0E0F80121
:1021100061918F01CE010E943A0F2196C434D105FE
:10212000B1F702ED19E0C0E5D0E0F80161918F014F
:10213000CE010E943A0F2196C435D105B1F70EECBD
:1021400019E0C0E6D0E0F80161918F01CE010E9454
:102150003A0F2196C436D105B1F70FE91EE0C0E46D
:10216000D1E0F80161918F01CE010E943A0F2196D2
:10217000C038F1E0DF07A9F7C0E0D0E0A89500E0A3
:1021800010E07E01F394FE01E00FF11FE15BF14FDF
:102190006081C701800F911F0E943A0F0F5F1F4F90
:1021A0000430110581F72496C034D10539F7C0E019
:1021B000D0E0A89500E010E07E01EEEFFE1AFE01EF
:1021C000E00FF11FE152F14F6081C701800F911FB5
:1021D0000E943A0F0F5F1F4F0430110581F72496BC
:1021E000C038D10531F760E081E090E00E943A0FFD
:1021F000C0915E08D0915F082196D0935F08C0938C
:102200005E086D2F80E093E00E943A0F6C2F81E012
:1022100093E00E943A0FC536D10530F084E690E095
:1022200090935F0880935E08DF91CF911F910F918B
:10223000FF90EF90089580915C0861E0882319F089
:1022400080912B0E02C080915D080C946C330F932B
:102250001F93CF93C82F8093250E6091290E609312
:10226000270E90E0E09110020E2FEE0F110B220BC3
:10227000330B02311105F0F4F801EC57FF4F0C94C9
:10228000BF420E94C8210DC091600E94B72009C0C2
:1022900091600E945D1F05C00E94722102C00E94D1
:1022A0003C21882339F081E080935C080E94580F1C
:1022B000C82F02C010925C08C0932B0E80915C085E
:1022C00061E0882311F08C2F02C080915D08CF91CE
:1022D0001F910F910C946C3380915C08882331F02E
:1022E0000E94580F80932B0E61E003C061E0809143
:1022F0005D080C946C338093290E9091250E9A3FC3
:1023000018F0892F0C9427118093270E089580933D
:102310002F0E80932E0E0895F999FECF92BD81BDA8
:10232000F89A80B508950F931F93CF938C010E9464
:102330008C11C82FC80101960E948C112C2F30E0FF
:10234000322F2227A901480F511DCA01CF911F9199
:102350000F9108958F929F92AF92BF92CF92DF928A
:10236000EF92FF920F931F93CF93DF938FEF8093A2
:10237000C0098093C1098093C2098093C3095CEBB3
:10238000C52E59E0D52E06ED19E064EBE62E69E086
:10239000F62E80EC99E0D701E801F601119219922E
:1023A0001D928E179F07D1F7EFE4FEE08FE89EE0C5
:1023B000108211821282138234968E179F07C1F702
:1023C0004FE9A42E4EE0B42E8EED9EE0F501119261
:1023D0008E179F07E1F7CFEFC093DE0E81E090E00C
:1023E0000E948C11882309F47CC210925F0810921D
:1023F0005E0881E080932E0E92E09093240E8093ED
:10240000290E8093270E1092250E10922B0E1092FB
:10241000280E8093190210922C0E80E69AEE90936B
:1024200002028093010284E680930002C0930302BB
:10243000C0E0D0E0CE010196FE01E257FD4F2491AD
:10244000222309F448C2FC01E257FD4F84918E011A
:102450000D5F1F4FFE01E057FD4FE49190E0982F74
:1024600088278E0F911D213021F0E801C80FD91F58
:10247000E1CF8AE192E00E94D241F801E257FD4F9C
:10248000E491FE01EE56FD4F2491FE01ED56FD4F05
:10249000E491FE01EC56FD4FE491FE01EB56FD4F39
:1024A000E491E093280EFE01EA56FD4FE491E0939B
:1024B0001902FE01E956FD4FE491E093C009FE01C7
:1024C000E856FD4FE491E093C109FE01E756FD4F48
:1024D000E491E093C209FE01E656FD4FE491E093DA
:1024E000C309FE01E556FD4FE491E093BC09FE01EE
:1024F000E456FD4FE491E093BD09FE01E356FD4F24
:10250000E491E093BE09FE01E256FD4FE491E093B1
:10251000BF09FE01E156FD4FE491E093B409FE01CD
:10252000E056FD4FE491E093B509FE01EF55FD4FF4
:10253000E491E093B609FE01EE55FD4FE491E0937E
:10254000B709FE01ED55FD4FE491E093D609FE0178
:10255000EC55FD4FE491E093D709FE01EB55FD4F9B
:10256000E491E093D809FE01EA55FD4FE491E09330
:10257000D909FE01E955FD4F8491AE01455E5F4FDB
:10258000FE01E855FD4FE491F0E0F82BF0930202D4
:10259000E093010230E0CA010196FA01E257FD4FD3
:1025A000E491432F50E0DA01A156B14FEC93EF3F95
:1025B00019F03F5FAC01EFCF223099F038F42130B1
:1025C00009F0BAC0BC0120E030E00DC0233009F4AE
:1025D00053C0243009F0B0C0AC0142575D4F20E039
:1025E00079C040E025C0422F6F5F7F4FFC01E20FB2
:1025F000F31FE257FD4FE491E9012196EE2359F0D4
:10260000D901BB27AA0FBB1FAA0FBB1FA15BB14FEC
:10261000EC939E01E8CF403148F424E0429FF00162
:102620001124E15BF14F10824F5FF5CFCB0191C0D8
:102630009C01FC01E257FD4F549164E0469FD0019C
:102640001124A15BB14F5C930296F901E157FD4F54
:10265000E4911196EC93E52B11F04F5FE9CF4031F7
:1026600008F08AC024E0429FF0011124E15BF14FA1
:10267000108211824F5FF3CFAC0142575D4F20E0D3
:10268000FA013491F4E02F9FD0011124A15BB14FE6
:102690003C93FA013196E4913E2B1196EC931197FD
:1026A0000396FA013296E4911296EC934D5F5F4FD8
:1026B000E32B11F02F5FE4CF203108F072C034E03B
:1026C000239FF0011124E15BF14F108211821282ED
:1026D0002F5FF2CFFA013491F4E02F9FD001112443
:1026E000A15BB14F3C93FA013196E4913E2B1196D8
:1026F000EC931197FA013296E4913E2B1296EC93EB
:1027000012970496FA013396E4911396EC934C5F7A
:102710005F4FE32B11F02F5FDDCF203108F05CC05D
:1027200034E0239FF0011124E15BF14F108211820C
:10273000128213822F5FF1CF2230F1F020F421308A
:1027400009F06CC006C0233061F1243009F066C086
:1027500043C0AFEDBEE020E030E0FC01E20FF31F2C
:10276000E257FD4FE491EC932F5F3F4F14962830D2
:10277000310599F708965FC09C0122573D4FAFED98
:10278000BEE0F90144914C933196E4911196EC939B
:1027900011972E5F3F4F1496FFE0AF31BF0789F7C7
:1027A00057C09C0122573D4FAFEDBEE0F901449167
:1027B0004C933196E4911196EC931197F90132966E
:1027C000E4911296EC9312972D5F3F4F1496FFE021
:1027D000AF33BF0759F74EC09C0122573D4FAFEDB5
:1027E000BEE04FE55FE0F90164916C933196E491AE
:1027F0001196EC931197F9013296E4911296EC93AD
:102800001297F9013396E4911396EC9313972C5F8A
:102810003F4F14964A175B0731F743C02230C9F087
:1028200020F4213009F057C006C0233029F12430AC
:1028300009F051C038C0FC01E257FD4FE491E0932C
:10284000D2091092D5091092D4091092D30943C02D
:102850008096FC01E257FD4FE491E093D209FC0120
:10286000E157FD4FE491E093D3091092D5091092FE
:10287000D40931C0885B9F4FFC01E257FD4FE491C2
:10288000E093D209FC01E157FD4FE491E093D309B5
:10289000FC01E057FD4FE491E093D4091092D50973
:1028A0001AC080589F4FFC01E257FD4FE491E0931E
:1028B000D209FC01E157FD4FE491E093D309FC01FB
:1028C000E057FD4FE491E093D409FC01EF56FD4F32
:1028D000E491E093D50982E08093240E0E94FE0FDC
:1028E000E7C082E090E00E948C1180932E0E82E07F
:1028F0008093240E84E090E00E948C118093290E36
:102900008093270E85E090E00E948C118093250E25
:1029100080932B0E86E090E00E948C118093280E0D
:1029200087E090E00E948C118093190288E090E08B
:102930000E948C1180932C0E8AE090E00E949311EB
:1029400090930202809301028CE090E00E948C112F
:10295000809300028DE090E00E948C11809303022E
:1029600080E093E00E94931190935F0880935E084B
:1029700090EC892E99E0992EC0E1D0E0CE010E9422
:102980008C11F40181934F012196C431D105B1F727
:10299000C0E2D0E0CE010E948C11F60181936F015C
:1029A0002196C432D105B1F7CE010E948C11F701F6
:1029B00081937F012196C832D105B1F785E1E82ED8
:1029C00082E0F82EC0E3D0E0CE010E948C11F70126
:1029D00081937F012196C433D105B1F7C0E4D0E0E3
:1029E000CE010E948C11F80181938F012196C4348D
:1029F000D105B1F702ED19E0C0E5D0E0CE010E94AB
:102A00008C11F80181938F012196C435D105B1F75E
:102A10000EEC19E0C0E6D0E0CE010E948C11F80166
:102A200081938F012196C436D105B1F7C0E4D1E07E
:102A3000CE010E948C11F50181935F012196C0386F
:102A4000F1E0DF07A9F7C0E0D0E000E010E07E0190
:102A5000F394C701800F911F0E948C11FE01E00FBB
:102A6000F11FE15BF14F80830F5F1F4F04301105B1
:102A700081F72496C034D10541F7C0E0D0E000E0F2
:102A800010E07E013EEFF31AC701800F911F0E94F4
:102A90008C11FE01E00FF11FE152F14F80830F5FB7
:102AA0001F4F0430110581F72496C038D10539F73E
:102AB0008091250EDF91CF911F910F91FF90EF90A4
:102AC000DF90CF90BF90AF909F908F900C94271184
:102AD0000F931F93CF93DF9300D000D0CDB7DEB715
:102AE0008C01FC01808190E00E94E542892B09F471
:102AF00055C0B801CE0101960E947C0FE9818E2F4E
:102B000090E0FC013197EA30F10508F047C0EA5641
:102B1000FF4F0C94BF426FEF81E090E00E943A0FAC
:102B200085E292E00CC080E392E00E94D241809165
:102B30005E0890915F080E94964282E292E00E94B5
:102B4000D2412CC087E392E00E94D24181E0809381
:102B5000A30824C087E492E00E94D2411092A30807
:102B60001DC087E592E00E94D24181E08093AA09CE
:102B700015C086E692E00E94D2411092AA090EC0CA
:102B800086E792E00E94D24181E08093C50806C0AA
:102B900086E892E00E94D2411092C5080F900F90F3
:102BA0000F900F90DF91CF911F910F9108950F9388
:102BB0001F93CF93DF9300D000D0CDB7DEB78C0149
:102BC000FC01808190E00E94E542892BA1F0B801D0
:102BD000CE0101960E947C0F8981853051F018F456
:102BE000843048F406C0873030F0823110F08F3FD7
:102BF00011F4809303020F900F900F900F90DF91CC
:102C0000CF911F910F9108952F923F924F925F9213
:102C10006F927F928F929F92AF92BF92CF92DF92EC
:102C2000EF92FF920F931F93CF93DF93CDB7DEB751
:102C300027970FB6F894DEBF0FBECDBFC12CD12CA5
:102C400020EC222E29E0322E0AED19E038EBE32E9B
:102C500039E0F32E0E946742882311F40C945D1E24
:102C60000E94304299270E94FA428A3099F32091BB
:102C70006108309162088D3011F00C94471EC90133
:102C800001969093620880936108F901ED59F74F1E
:102C90001082B090630884E698E00E94440F6C01B3
:102CA0002AE5B2121AC0DC018C9190E00E94E54244
:102CB000892B69F0B601CE0101960E94C10F89816E
:102CC0009A81429741F4B1E0B093600806C087E969
:102CD00092E00E94D241109260088091600888239F
:102CE00009F4C8C78DE992E00E94D24183E698E0DA
:102CF0000E94D2418FE992E00E94D241B0906308D5
:102D000084E698E00E94440F6C018B2D90E0FC015A
:102D1000E154F109E831F10508F0B0C7E056FF4F82
:102D20000C94BF42F601808190E00E94E542892B1D
:102D300049F0B601CE0101960E947C0F89810E9464
:102D400027119CC787E992E097C7D6018C9190E044
:102D50000E94E542892B09F491C7B601CE01019684
:102D60000E947C0F89810E947B1188C7F6018081B7
:102D700090E00E94E542892B09F480C7B601CE019C
:102D800001960E947C0F898180932F0E80932E0ED6
:102D900075C70E94FE0F72C70E94AA116FC7D601A5
:102DA000EC918E2F90E0FC01EB54F109EE30F1052F
:102DB00008F0C3C0E854FF4F0C94BF42C60101960F
:102DC0000E94440F6C01FC01808190E00E94E5426A
:102DD000892B99F0B601CE0101960E94C10F83EABA
:102DE00092E00E94D24189810E947F4280E20E944B
:102DF000764189810E94FF3FA4C18BEA92E00E9444
:102E0000D2410E9436409DC1C60101960E94440FE6
:102E10008AEB92E00E94D2410E94744092C1C601A6
:102E200001960E94440F6C01DC01BC908B2D90E058
:102E30000E94E542892B39F1B601CE0101960E942C
:102E4000C10F81EC92E00E94D24189810E947F42B1
:102E5000C12CD12C86E895E00E94D241E981FA810B
:102E6000EE0FFF1FEE0FFF1FE152F14FEC0DFD1DA6
:102E700080810E947F42BFEFCB1ADB0AE4E0CE16CE
:102E8000D10441F75EC1F0E4BF1216C089EC92E0B4
:102E90000E94D24185E1C82E82E0D82ED6018D91C4
:102EA0006D010E947F4280E20E947641E9E1F2E0FA
:102EB000EC15FD0599F745C1F1E2BF1216C080ED92
:102EC00092E00E94D241B2EDCB2EB9E0DB2ED601CA
:102ED0008D916D010E947F4280E20E947641E6ED75
:102EE000F9E0EC15FD0599F72CC1F9E4BF1229C1F1
:102EF00087ED92E00E94D241AEECCA2EA9E0DA2E14
:102F0000D6018D916D010E947F4280E20E94764140
:102F1000E2EDF9E0EC15FD0599F713C1C601019644
:102F20000E94440F8EED92E00E94D2418091280EC3
:102F30000E947F4283EE92E09FC68AEE92E00E945A
:102F4000D24182EF92E00E94D24183E093E00E945E
:102F5000D2418091360E9091370E0E94D2418BE083
:102F600093E00E94D2418091C8089091C9080E94C4
:102F7000D24180E293E00E94D24188E293E00E9435
:102F8000D24182E292E00E94D2418BE293E00E9421
:102F9000D2418091AB090E947F4282E292E00E947E
:102FA000D24182E393E00E94D241809110020E94BC
:102FB0007F4282E292E00E94D24188E393E00E9445
:102FC000D241809103020E947F4282E292E00E94FD
:102FD000D2418DE393E00E94D24180912E0E0E9457
:102FE0007F4282E493E00E94D2418091240E0E94AD
:102FF0007F4289E493E00E94D2418091270E0E9493
:103000007F4280E593E00E94D24180912B0E0E9486
:103010007F4287E593E00E94D2418091290E0E9471
:103020007F428FE593E00E94D2418091250E0E945D
:103030007F4287E693E00E94D2418091280E0E9451
:103040007F4286E895E00E94D24180912A0E0E943C
:103050007F428EE693E00E94D241809119020E9445
:103060007F4285E793E00E94D24180912C0E0E941E
:103070007F428CE793E00E94D241809101029091BF
:1030800002020E94964283E893E00E94D24180911E
:1030900000020E947F428AE893E00E94D241F0EC55
:1030A000CF2EF9E0DF2ED6018D916D010E947F4277
:1030B00080E20E947641E4ECF9E0EC15FD0599F719
:1030C00081E993E00E94D241E6EDCE2EE9E0DE2ECA
:1030D000D6018D916D010E947F4280E20E9476416F
:1030E0000C151D05A9F788E993E00E94D2417CEBFD
:1030F000C72E79E0D72EF60181916F010E947F42A1
:1031000080E20E9476412C143D04A9F78FE993E0F8
:103110000E94D24164EBC62E69E0D62ED6018D9175
:103120006D010E947F4280E20E947641EC14FD0412
:10313000A9F786EA93E00E94D2418091C7080E94D5
:103140007F4282EB92E098C5D601EC918E2F90E001
:10315000FC01E454F109E531F10508F08BC1EA53B3
:10316000FF4F0C94BF42C60101960E94440F6C01B0
:10317000FC01808190E00E94E542892B09F44FC058
:10318000B601CE0101960E94C10F81EB93E00E942F
:10319000D24189810E947F4280E20E9476418981EA
:1031A0009A81803108F052C16C01DD24F0E4CF0E29
:1031B000D11CCC0CDD1CCC0CDD1CC6010E948C117A
:1031C000B82EC60101960E948C11A82EC601029647
:1031D0000E948C1190E0A0E0B0E0DC0199278827E4
:1031E0009A299C01AD012B2949015A01C601039678
:1031F0000E948C11B82A882D0E947F4280E20E9492
:103200007641892D0E947F4280E20E9476418A2D7C
:103210000E947F4280E20E9476418B2D15C189EB8E
:1032200093E00E94D2418AE20E947641C12CDD24C3
:10323000D394C6010E948C11B82EC60101960E943B
:103240008C11A82EC60102960E948C1190E0A0E07D
:10325000B0E0DC01992788279A299C01AD012B2930
:1032600049015A01C60103960E948C11B82A882D83
:103270000E947F4280E20E947641892D0E947F4217
:1032800080E20E9476418A2D0E947F4280E20E9465
:1032900076418B2D0E947F4286E20E94764134E087
:1032A000C30ED11C40E4C41641E0D40611F6CEC0D2
:1032B000C60101960E94440F88EC93E00E94D2411F
:1032C000A0E4CA2EDD24D394C6010E948C11B82E2E
:1032D0000E947F4280E20E9476415FEFB51609F4BA
:1032E000B5C08FEFC81AD80A90E8C91691E0D90680
:1032F00059F7ACC0C60101960E94440F6C01DC0175
:10330000BC908B2D90E00E94E542892B39F1B601EB
:10331000CE0101960E94C10F8FEC93E00E94D24132
:1033200089810E947F42C12CD12C86E895E00E94C1
:10333000D24189819A81880F991F880F991F9E5FBA
:103340008C0D9D1D0E948C110E947F42BFEFCB1AF5
:10335000DB0AE4E0CE16D10441F778C0F0E4BF12F6
:1033600017C087ED93E00E94D241E0E3CE2ED12C2E
:10337000C6010E948C110E947F4280E20E94764129
:103380002FEFC21AD20A34E3C316D10489F75EC004
:1033900041E2B41217C08EED93E00E94D24170E575
:1033A000C72ED12CC6010E948C110E947F4280E260
:1033B0000E9476415FEFC51AD50A84E5C816D1048C
:1033C00089F744C099E4B91241C085EE93E00E94A8
:1033D000D24160E6C62ED12CC6010E948C110E94FB
:1033E0007F4280E20E947641AFEFCA1ADA0AB4E661
:1033F000CB16D10489F72AC0C60101960E94440F5A
:103400006C01FC01808190E00E94E542892B09F467
:1034100035C4B601CE0101960E94C10F89819A81FF
:103420008034910508F02AC4985F0E948C11D82E30
:103430008CEE93E00E94D24189810E947F4286E80F
:1034400095E00E94D2418D2D0E947F4280EC93E056
:1034500013C4C60101960E94440F84EF93E00E94BA
:10346000D24186E090E00E948C110E947F4289EF59
:1034700093E002C482E090E00E948C118F8383E08D
:1034800090E00E948C11482E84E090E00E948C1104
:10349000582E85E090E00E948C11682E86E090E026
:1034A0000E948C11782E87E090E00E948C11982E5B
:1034B00088E090E00E948C11C82E8DE090E00E9480
:1034C0008C11D82E8EE090E00E948C11882E8AE01C
:1034D00090E00E9493115C0181E094E00E94D2414F
:1034E0008F810E947F4288E094E00E94D241842D27
:1034F0000E947F428FE094E00E94D241852D0E947D
:103500007F4286E194E00E94D241862D0E947F4254
:103510008DE194E00E94D241872D0E947F4286E88F
:1035200095E00E94D241882D0E947F4284E294E07F
:103530000E94D241892D0E947F428BE294E00E943A
:10354000D2418C2D0E947F4282E394E00E94D241BE
:10355000C5010E94964289E394E00E94D2418D2DDC
:103560000E947F4280E494E00E94D24150E1C52E47
:10357000D12CC6010E948C110E947F4280E20E94E1
:103580007641FFEFCF1ADF0A24E1C216D10489F792
:1035900087E494E00E94D24140E4C42ED12CC601BD
:1035A0000E948C110E947F4280E20E9476413FEF90
:1035B000C31AD30A44E4C416D10489F78EE494E014
:1035C0000E94D24130E2C32ED12CC6010E948C1140
:1035D0000E947F4280E20E9476415FEFC51AD50AC1
:1035E00084E2C816D10489F785E594E00E94D241AF
:1035F000C6010E948C110E947F4280E20E947641A7
:103600009FEFC91AD90AA8E2CA16D10489F71ECFBA
:10361000F6018081833409F48AC078F4813409F09A
:103620002DC3C60101960E94440F5C01B4EB8B2EA2
:10363000B9E09B2EC12CD12CD2C08E3479F08335C9
:1036400009F01CC3C60101960E94440F5C0196ED6F
:10365000892E99E0992EC12CD12C59C0C601019612
:103660000E94440F5C0120EC822E29E0922EC12C96
:10367000D12CD5018C9190E00E94E542892B21F458
:10368000F601E054F64F1EC0B501CE0101960E942E
:10369000C10F5C0187EB93E00E94D24189819A813E
:1036A0000E9496428981F40181934F01C5010E94D5
:1036B000440F5C01FFEFCF1ADF0A24E0C216D104E9
:1036C000C1F6DCC239E0E43CF30709F4D7C2119239
:1036D000F9CFB501CE0101960E94C10F5C0187EBC5
:1036E00093E00E94D24189819A810E949642898109
:1036F000F40181934F01C5010E94440F5C01FFEF6B
:10370000CF1ADF0A24E0C216D10409F4B7C2D501EA
:103710008C9190E00E94E542892BD9F6F601EA529D
:10372000F64F0E171F0709F4A9C21192FACFC6016E
:1037300001960E94440F5C018CEB882E89E0982E44
:10374000C12CD12CD5018C9190E00E94E542892BAF
:1037500021F4F601E454F64F1EC0B501CE010196E6
:103760000E94C10F5C0187EB93E00E94D2418981E6
:103770009A810E9496428981F40181934F01C5018B
:103780000E94440F5C01FFEFCF1ADF0A24E0C2164B
:10379000D104C1F673C22E163F0609F46FC211920E
:1037A000FACFB501CE0101960E94C10F5C0187EBF3
:1037B00093E00E94D24189819A810E949642898138
:1037C000F40181934F01C5010E94440F5C01FFEF9A
:1037D000CF1ADF0A24E0C216D10409F44FC2D50182
:1037E0008C9190E00E94E542892BD9F6F601EC54C9
:1037F000F64FEE16FF0609F441C21192FACFB60158
:10380000CE0101960E94C10F0E94440F5C01898184
:103810009A81409708F032C2C12CD12C9C2CD50142
:103820008C9190E00E94E542892B39F1B501CE01DF
:1038300005960E94C10F5C018CE594E00E94D24184
:103840008D819E810E949642E981FA81EE0FFF1FD1
:10385000EE0FFF1FE15BF14FEC0DFD1D8D818083AD
:10386000C5010E94440F5C01BFEFCB1ADB0AE4E004
:10387000CE16D10499F6E4E09E2E1E821D82F4E05D
:103880009F1609F4FBC18CE594E00E94D2418D8122
:103890009E810E949642E981FA81EE0FFF1FEE0F92
:1038A000FF1FE15BF14FE90DF11D8D818083939442
:1038B000E6CFB601CE0101960E94C10F0E94440FCF
:1038C0006C0189819A818034910508F0D7C1D601B5
:1038D0008C9190E00E94E542892B09F4CFC1B6019A
:1038E000CE0105960E94C10F80E40E947641898135
:1038F0000E947F4280E20E9476418D810E947F4239
:1039000082E292E00E94D241E981FA81E156F14FD0
:103910008D818083B3C1F6018081853441F08C3480
:1039200009F0ACC104C0D6018C91803529F4C601E0
:1039300001960E94440FA2C1803409F041C0C60123
:1039400001960E94440F6C0165E1A62E62E0B62E3E
:10395000912CF601808190E00E94E542892BD1F004
:10396000B601CE0105960E94C10F6C018CE594E072
:103970000E94D2418D819E810E9496428D81D50107
:103980008D935D01C6010E94440F6C019394B4E0D5
:103990009B12DFCF1E821D82E4E09E1609F46EC1E9
:1039A0008CE594E00E94D2418D819E810E949642D6
:1039B000E92DF0E0EB5EFD4F8D8180839394ECCF99
:1039C000813209F041C0C60101960E94440F6C018A
:1039D00052EDA52E59E0B52E912CD6018C9190E098
:1039E0000E94E542892BD1F0B601CE0105960E94D6
:1039F000C10F6C018CE594E00E94D2418D819E81C3
:103A00000E9496428D81F50181935F01C6010E945B
:103A1000440F6C019394F4E09F12DFCF1E821D824D
:103A200024E0921609F42AC18CE594E00E94D24168
:103A30008D819E810E949642E92DF0E0EE52F64F74
:103A40008D8180839394ECCF893409F041C0C60105
:103A500001960E94440F6C014EECA42E49E0B42E56
:103A6000912CD6018C9190E00E94E542892BD1F0F7
:103A7000B601CE0105960E94C10F6C018CE594E061
:103A80000E94D2418D819E810E9496428D81F501D6
:103A900081935F01C6010E94440F6C019394F4E08E
:103AA0009F12DFCF1E821D8224E0921609F4E6C029
:103AB0008CE594E00E94D2418D819E810E949642C5
:103AC000E92DF0E0E253F64F8D8180839394ECCFA3
:103AD000B601CE0101960E94C10F0E94440F5C0105
:103AE00089819A81809708F0C9C0C12CD12C9C2C67
:103AF000D5018C9190E00E94E542892B39F1B50106
:103B0000CE0105960E94C10F5C018CE594E00E94F5
:103B1000D2418D819E810E949642E981FA81EE0F09
:103B2000FF1FEE0FFF1FE152F14FEC0DFD1D8D81C8
:103B30008083C5010E94440F5C01BFEFCB1ADB0AF2
:103B4000E4E0CE16D10499F624E0922E1E821D8266
:103B5000F4E09F1609F492C08CE594E00E94D241F3
:103B60008D819E810E949642E981FA81EE0FFF1FAE
:103B7000EE0FFF1FE152F14FE90DF11D8D818083A2
:103B80009394E6CFB601CE0101960E94C10F0E9428
:103B9000440F6C01DC018C9190E00E94E542892B7E
:103BA00009F46CC0B601CE0105960E94C10F89814F
:103BB0009A818130910519F0029781F05FC08D8163
:103BC0009E81909302028093010287EB93E00E9412
:103BD000D2418D819E810E94964250C08D819E81EE
:103BE000009719F08093000249C0B4E6B093000238
:103BF00045C0F6018081843409F040C0C6010196B9
:103C00000E94440FBC01CE0101960E94C10F0E9488
:103C1000440F6C0189819A818034910578F5D60131
:103C20008C9190E00E94E542892B41F1B601CE01D2
:103C300005960E94C10F89819A816D81985F0E94CB
:103C40003A0F1CC0F601808190E00E94E542892B6A
:103C5000A9F0B601CE0101960E947C0F8981809364
:103C600019020CC0C6010E94681508C0C6010E9456
:103C7000D71504C08EE594E00E94D24110926208EC
:103C800010926108CC24C394D12C0C942A16A9015B
:103C90004F5F5F4F5093620840936108F901ED59FF
:103CA000F74F80834F33510514F40C942A16109269
:103CB0006208109261080C942A16C60127960FB666
:103CC000F894DEBF0FBECDBFDF91CF911F910F9152
:103CD000FF90EF90DF90CF90BF90AF909F908F902C
:103CE0007F906F905F904F903F902F9008950C942D
:103CF000AA119091A508E92FF0E0EC57FB4F8081C5
:103D00009F5F9A3018F49093A50808951092A50823
:103D10001092A6089FEF9093040208959091A40832
:103D2000E92FF0E0EA59FB4F80819F5F9A3018F449
:103D30009093A40808951092A4081092A6089FEFEB
:103D4000909304020895982F8091A7082DEE280FD4
:103D5000233108F4B1C020EB280F2A3008F4ACC09E
:103D600020E8280F2D3108F4A7C09923A9F010925C
:103D7000A8088E3749F018F4883731F00BC0883A1C
:103D800029F08E3A19F006C099E701C099EA90939C
:103D9000A90802C08093A9082091A9083091A80819
:103DA0002D37C1F060F4293738F1EFEFE20FE770FB
:103DB00095E0E99FF0011124E257FB4F19C0293A21
:103DC000D8F02D3A60F02D3AB9F4E32FF0E0EA593B
:103DD000FB4F10C0E32FF0E0EC57FB4F0BC0EFEFB1
:103DE000E20FE77095E0E99FF0011124E059FB4FE5
:103DF000E30FF11D908101C090E04091040249134E
:103E00001BC08E3719F08E3A61F01AC08091A60857
:103E1000811105C081E08093A6081092A5080C943A
:103E2000791E8091A608811105C081E08093A608C3
:103E30001092A4080C948E1E4F3F11F4909304022C
:103E40003F5F3093A8088E37A9F030F48C3761F1CA
:103E500070F4883779F02BC08C3A31F118F4883A35
:103E600089F025C08D3A19F08E3A61F020C03A30C1
:103E700010F11FC0343081F42C37E8F01092A808FC
:103E800089E707C0343041F42C3AA8F01092A80812
:103E900089EA8093A9080FC0353068F01092A8080D
:103EA0002F5F2093A90807C0343028F002C03530B6
:103EB00010F01092A808892F08959C01862F95E292
:103EC00090935D089FEF909304021092A6089DEED8
:103ED000920F933150F090EB920F9A3030F030FF08
:103EE00013C090E8920F9D3118F42093A90868C080
:103EF000B90177276837710508F466C06F37710517
:103F000058F0685A710904C0B901772768577109D8
:103F10006730710508F058C0F901FF27EE37F10549
:103F2000B9F040F4EC37F105E1F0F8F4E837F105C9
:103F300001F50EC0EC3AF105A1F020F4E83AF105E4
:103F400039F017C0ED3AF10581F0EE3AF10589F448
:103F500063E10E949F42892F65E00E949F42482FA3
:103F600017C0982F937040E013C06AE00E949F42F0
:103F70000FC0482F42954F708F70642F70E0DB01A7
:103F8000A80FB11DCD0165E070E00E94AB42982FF3
:103F9000EE37F10561F020F4E837F10541F00BC090
:103FA000E83AF10531F0EE3AF10519F004C047584E
:103FB00003C0475501C0422F9093A8084093A90819
:103FC0002093A70881E0089580E008959091AB08C0
:103FD000E92FF0E0E054FB4F80819F5F9A3018F4A6
:103FE0009093AB0808951092AB081092AC089FEF25
:103FF0009093050208959091AA08E92FF0E0EE55FC
:10400000FB4F80819F5F9A3018F49093AA0808951F
:104010001092AA081092AC089FEF909305020895A1
:10402000E091AD08E43108F4A0C09AED9E0F9732FC
:1040300008F49BC08823A1F01092AE08E63651F038
:1040400018F4E03639F00AC0E03711F0E63731F401
:1040500081E701C081E68093AF0802C0E093AF081A
:104060008091AF082091AE088536C1F060F48136AA
:1040700038F1AFEFA80FA77095E0A99FD0011124E8
:10408000A455BB4F19C08137D8F0853760F085370C
:10409000B9F4A22FB0E0A054BB4F10C0A22FB0E0E3
:1040A000AE55BB4F0BC0AFEFA80FA77095E0A99F0F
:1040B000D0011124A653BB4FA20FB11D9C9101C08A
:1040C00090E03091050239131AC0E63669F0E63700
:1040D000D1F48091AC08811105C081E08093AC08D7
:1040E0001092AB080C94E61F8091AC08811105C0BA
:1040F00081E08093AC081092AA080C94FB1F3F3F0C
:1041000011F4909305022F5F2093AE084E2F50E0DC
:10411000FA01E056F109E731F10510F5E552FF4FDC
:104120000C94BF422A3000F11DC0243071F4843752
:10413000D8F01092AE0881E70DC0243031F48436F7
:1041400098F01092AE0881E605C0253068F0109214
:10415000AE088F5F8093AF0807C0243028F002C0FC
:10416000253010F01092AE08E92F8E2F0895CF93CE
:10417000DF939C01862F95E290935D089FEF9093CB
:1041800005021092AC08243170F090EC920F9A3036
:1041900050F030FF15C09AED920F9A3120F096EB57
:1041A000920F933018F42093AF0855C0B9017727C8
:1041B0006036710508F453C06736710518F408C0FD
:1041C000B9017727605771096730710508F047C05A
:1041D000E901DD27FE01E056F109E731F105A8F418
:1041E000EE50FF4F0C94BF4263E10E949F42892F23
:1041F00065E00E949F42482F17C0982F937040E0BF
:1042000013C06AE00E949F420FC0482F42954F7032
:104210008F70642F70E0FB01E80FF11DCF0165E0A6
:1042200070E00E94AB42982FC636D10569F020F4A9
:10423000C036D10549F00AC0C037D10519F0C637DC
:10424000D10521F44F5803C04F5901C0422F90931C
:10425000AE084093AF082093AD0881E001C080E034
:10426000DF91CF910895882321F08091B008809349
:10427000B1088091B108089596E990935D089EEF8A
:10428000980F953930F48093B1088093B00881E09D
:10429000089580E00895982F8091B208843E08F137
:1042A000992321F01092B3088093B408E091B408E8
:1042B0008091B30891E0980F9093B308EA3F60F0C3
:1042C000EA5FEE0FEE0FEE0FF0E08770E252FB4F69
:1042D000E80FF11D808101C080E0983010F010924D
:1042E000B308089594E690935D08843E28F49BE912
:1042F000980F9B3158F004C08A3F40F01092B308E9
:104300008093B4088093B20881E0089580E0089516
:104310009091B5089832D0F1882381F01092B608B8
:10432000993F21F09A3F21F0903F31F481EF01C095
:1043300082EF8093B70802C09093B7082091B70826
:10434000E091B60841E04E0F4093B608E770F0E008
:10435000E25FFA4F8FEF820F87703081830F453015
:10436000B0F01092B608903F31F040F0995F923073
:1043700028F42E5F01C02F5F2093B7089091B708F3
:10438000993F28F098509093B7080895892F089581
:10439000282F862F97E290935D08283218F42093F7
:1043A000B70830C090E1920F9B3080F5203F29F094
:1043B00048F097E0920F923028F465E00E949F4207
:1043C000382F0FC0382F32953F708F70432F50E039
:1043D000BA01680F711DCB0165E070E00E94AB422D
:1043E000982F203F41F048F047E0420F423028F438
:1043F000330F340F3F703F5001C0322F9093B608F7
:104400003093B7082093B50881E0089580E00895BF
:104410008FEF81B912B820EF24B99FE095B987B921
:1044200018B82AB99BB91DB88EB92EEC20BB21E073
:1044300021BB93BB30E334BB3CE83093010133EF45
:10444000309302013EEF30930401209305012CE3E9
:10445000209307011092080190930A0180930B01A9
:1044600080E48093A00089E08093A1001092A900CD
:104470001092A800109280008093810080E493E065
:10448000909389008093880082E080936F000C9461
:10449000384110927D0010927E00EAE7F0E084E857
:1044A000808385E680937C0010927B00808180640D
:1044B000808308951092310E089581E08093310E2B
:1044C0000895809100018295817091E089279091F3
:1044D000000195FF826008958091C4088150809307
:1044E000C408811106C080917A00806480937A00AC
:1044F00054C087FF52C08091C308853619F08936B1
:1045000091F141C0809179008093380E8091380EEE
:10451000869586958093380E4091C0084093BF08D9
:104520008091C1088093C0083091C2083093C108BF
:104530002091380E2093C20890E0840F911D830FC4
:10454000911D820F911D96958795969587958093DD
:10455000380E89E68093C30881E680937C0088E06A
:1045600080937B0017C080917C008F7D80937C00BE
:10457000809178008093300E80917900837019F0DB
:104580008FEF8093300E85E68093C30880937C0084
:1045900010927B0085E08093C40880910F028823ED
:1045A00029F080910F02815080930F0280910E02BA
:1045B000882329F080910E02815080930E02809111
:1045C0000C0290910D02892B49F080910C02909180
:1045D0000D02019790930D0280930C0280910B02C3
:1045E000882329F080910B02815080930B028091E7
:1045F0000A02882329F080910A02815080930A02DE
:1046000080910902882329F08091090281508093CA
:1046100009028091DA08882329F08091DA08815014
:104620008093DA088091D908882361F08091D908B5
:1046300081508093D9088091D908811103C081E00D
:104640008093D80880910802882329F0809108027D
:1046500081508093080280910702882329F080917D
:1046600007028150809307028091CE08882329F0A9
:104670008091CE0881508093CE088091D408882301
:1046800029F08091D40881508093D4088091D30878
:10469000882329F08091D30881508093D30880919A
:1046A000D708882329F08091D70881508093D708B4
:1046B0008091D508882329F08091D5088150809376
:1046C000D50880910602882321F08150809306024C
:1046D00015C089E0809306028091D1089091D2089C
:1046E000892B49F08091D1089091D208019790933D
:1046F000D2088093D10881E08093CF088091CD08C3
:10470000882329F08091CD0881508093CD080895A9
:104710000E945A228091CA0880930A020E945D2258
:104720008091CC0884608093CC0884E68093090251
:1047300008951F920F920FB60F9211242F933F935B
:104740004F935F936F937F938F939F93AF93BF9399
:10475000CF93EF93FF938091BD089091BE089695FB
:1047600087959093BE088093BD082091060120FF95
:1047700005C090689093BE088093BD088091BD08E5
:104780009091BE089827892F817091FD8F5F92FDCF
:104790008F5F93FD8F5F94FD8F5F95FD8F5F96FD1B
:1047A0008F5F97FD8F5FC091BC08853020F4843007
:1047B00019F0C0E001C0C1E08091BB088F5F877035
:1047C0008093BB08833019F48C2F0E942E2B80918C
:1047D000BC0881113AC0CC23C1F12091BB08822FC3
:1047E000022E000C990BAA0BBB0B88309105C8F464
:1047F000FC01E75FFE4F0C94BF421092BA0811C053
:104800008091BA088F5F0BC08091BA088E5F07C095
:104810008091BA08825003C08091BA088150809379
:10482000BA088091BA0884302CF01092BA0821504E
:104830002093BB088091BA088D3F3CF41092BA08CF
:104840008091BB088F5F8093BB08C093BC088091A8
:10485000B908882321F081508093B9082CC08FEBD0
:104860008093B9088091310E882329F10E946C222F
:104870002091000E3091010E4091020E5091030ED6
:104880006091040E7091050E8091060E9091070EB6
:10489000AAE00E94C5422093000E3093010E40937F
:1048A000020E5093030E6093040E7093050E8093D6
:1048B000060E9093070EFF91EF91CF91BF91AF91AC
:1048C0009F918F917F916F915F914F913F912F9128
:1048D0000F900FBE0F901F901895A89584B7877FF3
:1048E00084BF8091600088618093600010926000B6
:1048F000F8940E9408220E94310F78940E94771E3B
:104900000E9461228093AB098091010184608093B1
:10491000010187E680937C0088E080937B0084E837
:1049200080937A002FEF89EF90E0215080409040F3
:10493000E1F700C0000080917A00806480937A00E3
:1049400080917A0086FDFCCF809179008093340EAF
:104950008091340E843140F580E680937C00109283
:104960007B0084E880937A002FEF89EF90E021505C
:1049700080409040E1F700C0000080917A008064A0
:1049800080937A0080917A0086FDFCCF8091790037
:104990008093320E8091320E843108F07BC5809175
:1049A00003020E9424357AC5809103020E94643478
:1049B0008AE295E09093370E8093360E2091100294
:1049C000822F022E000C990BAA0BBB0B8231910592
:1049D00068F5FC01EF5EFE4F0C94BF4287E395E063
:1049E0009093370E8093360E81E007C083E495E004
:1049F0009093370E8093360E82E08093DB0816C0CA
:104A000083E495E09093370E8093360E83E007C0E1
:104A100083E495E09093370E8093360E84E0809384
:104A2000DB0818C085E08093DB0806C02C3021F03D
:104A30002F3011F02A3071F481E595E09093370E14
:104A40008093360E809119028250853018F085E0EF
:104A5000809319028BE293E00E94D2418091AB09CE
:104A60000E947F4282E292E00E94D2418DE595E071
:104A70000E94D241809110020E947F4282E292E025
:104A80000E94D24184E695E09093C9088093C808BB
:104A90008AEE92E00E94D24182EF92E00E94D241DF
:104AA00080E895E00E94D24183E093E00E94D241E9
:104AB0008091360E9091370E0E94D2418BE093E0A8
:104AC0000E94D2418091C8089091C9080E94D241A9
:104AD00080E293E00E94D24188E293E00E94D241BA
:104AE00082E292E00E94D24188E895E00E94D241A1
:104AF00081E08093CF080E945D220E9449228DE9C7
:104B000095E00E94D241C3E01092D0088091D00875
:104B10008530A0F48091D0080E94C8351092CF084B
:104B20008091CF088823E1F38091D0080E94163647
:104B30008091D0088F5F8093D008E8CFC15021F7D3
:104B40008EEA95E00E94D2410E94A536C82F0E94AD
:104B5000AA36D82F0E94AF36182F0E94B436082FDD
:104B60008FEB95E00E94D2418C2F0E947F4283EC14
:104B700095E00E94D2418D2F0E947F4282E292E016
:104B80000E94D24187EC95E00E94D241802F0E9482
:104B90007F4282E292E00E94D24143982C9A809117
:104BA000330E81608093330E9FE088E10FB6F89456
:104BB000A895809360000FBE90936000A8958D2FFC
:104BC0000E947B118C2F0E9427110E94D436909155
:104BD0002A0E892B8093260E812F0E9487118091A7
:104BE000350E807C8F7B8093350E81E08093C708E3
:104BF0008CEC95E00E94D24184E18093D708912CFF
:104C0000612CC1E088ECC82ED12C92E3A92EB12CE6
:104C10000EE110E0D4E12EE1322E30E7E32E37E151
:104C2000F32E44E6242E53E0752E62E3562E0E94A6
:104C300004168091CF088823A9F01092CF088091A4
:104C4000D0080E9416368091D0088F5F8093D008DC
:104C50008091D008853010F01092D0088091D00853
:104C60000E94C8358091CC088F7E8093CC080E942A
:104C7000B936882391F00E94A536982E0E942711FC
:104C800087EE95E00E94D241892D0E947F4282E208
:104C900092E00E94D241992493940E94C2368823C4
:104CA00091F00E94AA360E947B118BEE95E00E9443
:104CB000D2418091290E0E947F4282E292E00E94BE
:104CC000D241992493940E94CB36882391F00E947C
:104CD000AF360E9487118FEE95E00E94D2418091FD
:104CE0002F0E0E947F4282E292E00E94D2419924DC
:104CF00093940E94E236882399F00E94D4369091D2
:104D00002A0E892B8093260E83EF95E00E94D241D4
:104D10008091260E0E947F4282E292E00E94D24160
:104D2000809119028430B1F018F48230C0F009C0CB
:104D3000853039F0863099F41093CB080093CA0877
:104D400012C080910102909102029093CB0880934F
:104D5000CA0809C0D092CB08C092CA0804C0B09259
:104D6000CB08A092CA080E946C2B892B09F43FC083
:104D70000E94482C892B11F00E94792C0E94AF3799
:104D80008093DA08D093D908D093D7088091280E61
:104D900080FF0FC08091CC0880618093CC080E9476
:104DA0001C370E94333B2091350E892B39F02B7F25
:104DB00006C00E9483378111EDCF19C02460209373
:104DC000350E0E94EF3A2091350E892B11F0277F86
:104DD00001C028602093350E0E94613B2091350E62
:104DE000892B11F0206101C02F7E2093350E809118
:104DF000D808882321F01092D8080E949F2C809117
:104E00001902823068F59091250E80912B0E98172B
:104E100079F08091C708813059F49091D5089111AB
:104E200012C02CED2093D5089091D608892709C08F
:104E30008091D708811107C0D093D7088091D608F8
:104E40008C278093D6088091D608882321F0809102
:104E500001018B7F03C08091010184608093010177
:104E60008091CC0884FF89C08091350E8160809349
:104E7000350E30920B028091C708813019F08230D4
:104E8000F9F04EC01092C6082092080280911902D3
:104E9000823060F0843020F0853041F410920802B6
:104EA00084E08093C7088AEF95E01AC092E090935F
:104EB000C7081093D2080093D1088FE096E010C085
:104EC0000E94EF3A892B79F01092C6080E94663B47
:104ED00080910802811124C0C093C70881E296E046
:104EE0000E94D2411DC08091280E83FF05C07092A0
:104EF000C70889E396E00BC08091C6088F5F809356
:104F0000C608833068F07092C70881E596E00E9479
:104F1000D2418091350E80648093350E1092080244
:104F20008091C708833011F50E945A228091CA08E7
:104F30009091CB0890930D0280930C0280911902FE
:104F4000843029F4F092D208E092D10804C0109382
:104F5000D2080093D1080E945D228091CC08309243
:104F60000B02826081608093CC0807C0823029F4F4
:104F70008091350E8F7E8093350E9091190292505C
:104F80008091C708943008F054C0833009F044C0C1
:104F90008091280E86FF2AC08091D1089091D20876
:104FA000892BA9F00E945A22F092D208E092D108EF
:104FB00080911902853041F48091CA089091CB0804
:104FC00090930D0280930C020E945D2225C0809177
:104FD0000C0290910D02892BF9F480910B02811142
:104FE0001BC0C093C70886E696E014C08091D10824
:104FF0009091D208892B81F480910C0290910D023E
:10500000892B51F480910B02811106C0C093C7080F
:105010008FE796E00E94D2418091350E81FF22C039
:105020008091C708833079F17092C70888E996E0CB
:1050300017C082508230B0F48091D1089091D2088C
:10504000892B81F480910C0290910D02892B51F4EF
:1050500080910B02811106C0C093C70880EB96E0D7
:105060000E94D2418091C708833069F08091330E4D
:1050700080FD05C08091CC0880628093CC0880912F
:10508000330E816008C08091CC088F7D8093CC085E
:105090008091330E8E7F8093330E0E945A2280912E
:1050A0000C0290910D02892BB1F48091350E8D7F09
:1050B0008093350E0E94A33A8091CC0881FF0BC0EB
:1050C00080618D7F8093CC088091350E8F7E809398
:1050D000350E0E94350F0E945D2280910B028111D6
:1050E00010C08091CC0880FF0CC080618E7F8093BF
:1050F000CC088091350E837F8E7F8093350E0E9481
:10510000330F9091350E8091190290FD07C08330C6
:1051100029F4892F8F7E8093350E48C0833009F49F
:1051200045C018F4823041F095C0843009F484C041
:10513000853009F46BC08EC08091350E82FF17C098
:1051400090910A0291111AC09091CC0892FF16C05A
:105150009B7F9093CC0882608093350E8091CA0823
:105160009091CB0890930D0280930C0207C050924F
:105170000A028091CC0884608093CC088091350E1F
:1051800084FF79C050920A029091CC089460909369
:10519000CC088D7F8093350E8091C708813009F44B
:1051A0006AC0C093C70888EC96E043C08091350E72
:1051B00084FF22C081FF12C090910A02992309F452
:1051C0005AC08D7F8093350E8091CC088B7F809361
:1051D000CC08C093C70881EE96E02BC082FD0CC0BE
:1051E00090910A02911147C09091CC0892FF43C060
:1051F0009B7F9093CC0810C08091000280930A029C
:105200008091CC0884608093CC0835C08091350EA5
:1052100084FF04C083FF2FC082602BC0982F93703F
:10522000933049F58D7F8093350EC093C7088AEF80
:1052300096E00E94D2411FC08091350E84FD0AC0C5
:1052400080FF08C00E945A221092D2081092D10802
:105250000E945D228091C708833021F08091350E35
:105260008D7F07C08091350E84FB992790F990FBC4
:1052700081F98093350E8090350E81FA882480F86C
:10528000681429F08091CC0880618093CC088091CB
:1052900019028130D1F08630C1F09920B1F090919F
:1052A000350E9D7F9093350EC093C708853041F42D
:1052B00010920D0210920C021092D2081092D10896
:1052C00083E197E00E94D241912C0E94943A809110
:1052D00019029091350E823029F08630A9F0813084
:1052E00069F412C091FF05C080910902882361F022
:1052F00002C0209209020E94C63A06C091FD04C075
:105300000E94AB3A0E94973A8091350E80FD06C00C
:105310000E94AB3A0E94AB3A0E94973A8091CC0827
:1053200085FF12C08F7D8093CC080E94A33A0E9413
:10533000AB3A0E94463B8091CC0880618093CC08B8
:105340008BE297E00E94D2418091330E80FD0E9453
:10535000C63A8091350E85FF10C08D7F8093350E43
:105360000E94A33A0E94C63A0E949D3A8091CC08BE
:1053700080618093CC080E94370F8091CC0884FF15
:105380000CC080910802811108C00E94803B0E94DD
:105390008A400E94A83C0E948C3C0E94ED370E94EB
:1053A0009A380E94BC378091C708833029F08091D9
:1053B000330E8B7F8093330E8091CC0884FD7092E6
:1053C00007028091350E85FD15C08091070281117D
:1053D00012C00E948939892B39F4439A8091350E85
:1053E00080628093350E07C08091330E80FD02C02D
:1053F000439801C0439A80910E02811104C088E055
:1054000080930E0207C080910E02833010F48E9AB2
:1054100001C08E9880910F02811112C050920F022C
:105420008091330E81FB992790F99C2790FB81F99D
:105430008093330EA89580910201805880930201D9
:105440004090330E44FA442440F88091A308882306
:1054500021F08091330E806143C0809110028D5005
:10546000833088F48091380E9091B808981731F005
:105470008091380E8093B8080E9469358091300E73
:105480008B3038F72AC09091300E8091380E8917F2
:1054900020F5DFCF809103020E94C934809310026F
:1054A000809110020E94643486E195E00E94D2410E
:1054B0008091340E0E947F4282E292E00E94D241AB
:1054C0008FE195E00E94D2418091320E0E947F428E
:1054D00082E292E00E94D2416BCA8091330E8F7EAD
:1054E0008093330E8091330E84FF02C0A39801C0D5
:1054F000A39A6090330E64FA662460F84614A9F00B
:105500008091C508811111C082E397E00E94D241C9
:10551000662019F087E397E002C08CE397E00E94D1
:10552000D24182E292E00E94D2418091350E85FF05
:105530000DC0439A8091330E81FF04C02E982F989E
:105540002D9824C02E9A2F9A2D9A22C08091DA0885
:10555000882311F02F9801C02F9A8091330E83FF7A
:1055600002C02E9801C02E9A8091330E82FF02C095
:105570002D9801C02D9A9091280E8091330E90FFA6
:1055800003C081FF05C002C080FF02C02C9801C08B
:105590002C9A8091DB089091CC08823079F018F435
:1055A000813031F042C0833079F0843099F03DC0D1
:1055B0008091250E807F803FC1F513C08091250E1C
:1055C0008077803791F50DC08091250E807E8036E2
:1055D00061F507C08091250E807F803711F0803AF9
:1055E00021F594FF04C08AE08093D4081BC0809109
:1055F000330E80FF17C084FF09C08AE08093D4086F
:105600008091D308882349F0682C11CB8091D4086D
:105610008111FACF8AE08093D408D093D3080E94F6
:105620006C11F2CFD093D308EFCF94FF04C08AEF70
:105630008093D408E9CF8091D4088111E5CF8AEF17
:105640008093D4080E941B11809110028D508330EA
:10565000D8F68091380E0E946935D6CF9091A40972
:105660009695811190689093A4099091A4099E3712
:1056700071F41092A6091092A5099093A90981E0EE
:105680008093A8091092A3098093A7090895909187
:10569000A609882321F09F5F9093A60904C0109269
:1056A000A6099530C0F49091A30996958111906850
:1056B0009093A3098091A5098F5F883018F4809397
:1056C000A50908951092A5098091A3098093A909BD
:1056D00081E08093A8090895CF93DF938091A80972
:1056E000882309F4D0C01092A8092091A90930910B
:1056F000A7098091610990916209332309F4B2C02E
:105700001092A7099C01265031092131310508F07A
:1057100046C0E3E6F9E02FEF3FEF0297AF014356B3
:10572000594048175907D0F46191622770E1679F8B
:10573000A00111246427462F50E0B42FAA27232F5D
:1057400033272A2B3B2B62956F70A3E0440F551F24
:10575000AA95E1F7462724273527E0CFFC01ED592C
:10576000F64F8081418190E0942B282739272F3FE5
:105770003F4FA9F48F9A80916409C82FC07FD0E071
:1057800094E0D595C7959A95E1F78F70C80FD11D14
:10579000C131D1053CF082E497E00E94D24180E023
:1057A00090E002C081E090E02091610930916209AF
:1057B0003093200920931F09A1E2B9E0E3E6F9E064
:1057C000AF01435659404217530718F441914D9386
:1057D000F7CF009709F441C041E040931E09509172
:1057E000630950933D0E5091640950933C0E5091C3
:1057F000650950933E0EBE016A5F7F4F261737073B
:1058000061F42091660930E030933A0E2093390E0E
:1058100040933B0EE4E0F0E00AC02FEF3FEF3093FF
:105820003A0E2093390E10923B0EE3E0F0E0ED5972
:10583000F64FAFE3BEE09D012F533E402C173D07CE
:105840001CF421912D93F7CFC15CD14F2EE0CF34C2
:10585000D20711F01992FACF8F9810926209109224
:10586000610913C0FC01ED59F64F208301968F3377
:10587000910528F4909362098093610904C0109205
:1058800062091092610980E090E0DF91CF91089564
:105890002091DC083091DD0880911F09909120094A
:1058A0002817390791F4A1E2B9E0EEEDF8E0AF0175
:1058B0004E5D58404217530728F451914D915417AB
:1058C000B1F303C080E090E008959093DD088093E9
:1058D000DC08AEEDB8E0E1E2F9E09F012152394089
:1058E0002817390718F421912D93F7CF81E090E024
:1058F0000895CF93DF9387E497E00E94D24180918F
:105900001F09909120090E94964282E695E00E942C
:10591000D241C1E2D9E020911F0930912009CE0186
:10592000815299408217930720F489910E947F4207
:10593000F2CF8DE497E0DF91CF910C94D241109299
:10594000200910921F091092DD081092DC0889E4EA
:1059500097E00C94D24113BE13BE13BE13BE13BE08
:1059600013BE13BE13BE13BE13BE13BE13BE13BEAF
:1059700013BE13BE13BE13BE13BE13BE13BE13BE9F
:1059800013BE13BE13BE13BE13BE13BE13BE13BE8F
:1059900013BE13BE13BE13BE13BE13BE13BE13BE7F
:1059A00013BE13BE13BE13BE13BE13BE13BE13BE6F
:1059B00013BE13BE13BE13BE13BE13BE13BE13BE5F
:1059C00013BE13BE13BE13BE13BE13BE13BE13BE4F
:1059D00013BE13BE13BE13BE13BE13BE13BE13BE3F
:1059E00013BE13BE13BE13BE13BE13BE13BE13BE2F
:1059F00013BE13BE13BE13BE13BE13BE13BE13BE1F
:105A000013BE13BE13BE13BE13BE13BE13BE13BE0E
:105A100013BE13BE13BE13BE13BE13BE13BE13BEFE
:105A200013BE13BE13BE13BE13BE13BE13BE13BEEE
:105A300013BE13BE13BE13BE13BE13BE13BE13BEDE
:105A400013BE13BE13BE13BE13BE13BE13BE13BECE
:105A500013BE13BE13BE13BE13BE13BE13BE13BEBE
:105A600013BE13BE13BE13BE13BE13BE13BE13BEAE
:105A700013BE13BE13BE13BE13BE13BE13BE13BE9E
:105A800013BE13BE13BE13BE13BE13BE13BE13BE8E
:105A900013BE13BE13BE13BE13BE13BE13BE13BE7E
:105AA00013BE13BE13BE13BE13BE13BE13BE13BE6E
:105AB00013BE13BE13BE13BE13BE13BE13BE13BE5E
:105AC00013BE13BE13BE13BE13BE13BE13BE13BE4E
:105AD00013BE13BE13BE13BE13BE13BE13BE13BE3E
